{
  "contractName": "Projects",
  "abi": [
    {
      "inputs": [],
      "payable": false,
      "stateMutability": "nonpayable",
      "type": "constructor"
    },
    {
      "constant": true,
      "inputs": [
        {
          "internalType": "uint256",
          "name": "",
          "type": "uint256"
        }
      ],
      "name": "projects",
      "outputs": [
        {
          "internalType": "uint256",
          "name": "id",
          "type": "uint256"
        },
        {
          "internalType": "string",
          "name": "name",
          "type": "string"
        },
        {
          "internalType": "string",
          "name": "description",
          "type": "string"
        },
        {
          "internalType": "uint256",
          "name": "voteCount",
          "type": "uint256"
        }
      ],
      "payable": false,
      "stateMutability": "view",
      "type": "function"
    },
    {
      "constant": true,
      "inputs": [],
      "name": "projectsCount",
      "outputs": [
        {
          "internalType": "uint256",
          "name": "",
          "type": "uint256"
        }
      ],
      "payable": false,
      "stateMutability": "view",
      "type": "function"
    },
    {
      "constant": true,
      "inputs": [
        {
          "internalType": "address",
          "name": "",
          "type": "address"
        }
      ],
      "name": "voters",
      "outputs": [
        {
          "internalType": "bool",
          "name": "",
          "type": "bool"
        }
      ],
      "payable": false,
      "stateMutability": "view",
      "type": "function"
    },
    {
      "constant": true,
      "inputs": [],
      "name": "getVotedCount",
      "outputs": [
        {
          "internalType": "uint256",
          "name": "count",
          "type": "uint256"
        }
      ],
      "payable": false,
      "stateMutability": "view",
      "type": "function"
    },
    {
      "constant": false,
      "inputs": [
        {
          "internalType": "uint256",
          "name": "_projectId",
          "type": "uint256"
        }
      ],
      "name": "vote",
      "outputs": [],
      "payable": false,
      "stateMutability": "nonpayable",
      "type": "function"
    }
  ],
  "bytecode": "0x608060405234801561001057600080fd5b506100656040518060400160405280601781526020017f5669c5a165206b6fc5a1657661207a6120736d65c487650000000000000000008152506040518060200160405280600081525061011260201b60201c565b6100b96040518060400160405280601281526020017f436f776f726b696e672070726f73746f726900000000000000000000000000008152506040518060200160405280600081525061011260201b60201c565b61010d6040518060400160405280601681526020017f50616d65746e61206a61766e6120726173766a657461000000000000000000008152506040518060200160405280600081525061011260201b60201c565b610256565b60016000815480929190600101919050555060405180608001604052806001548152602001838152602001828152602001600081525060008060015481526020019081526020016000206000820151816000015560208201518160010190805190602001906101829291906101b1565b50604082015181600201908051906020019061019f9291906101b1565b50606082015181600301559050505050565b828054600181600116156101000203166002900490600052602060002090601f016020900481019282601f106101f257805160ff1916838001178555610220565b82800160010185558215610220579182015b8281111561021f578251825591602001919060010190610204565b5b50905061022d9190610231565b5090565b61025391905b8082111561024f576000816000905550600101610237565b5090565b90565b610641806102656000396000f3fe608060405234801561001057600080fd5b50600436106100575760003560e01c80630121b93f1461005c578063107046bd14610078578063648d2af5146100ab578063a3ec138d146100c9578063c73b302e146100f9575b600080fd5b6100766004803603610071919081019061041f565b610117565b005b610092600480360361008d919081019061041f565b610209565b6040516100a294939291906104d5565b60405180910390f35b6100b3610369565b6040516100c091906104ba565b60405180910390f35b6100e360048036036100de91908101906103f6565b6103a6565b6040516100f0919061049f565b60405180910390f35b6101016103c6565b60405161010e91906104ba565b60405180910390f35b600260003373ffffffffffffffffffffffffffffffffffffffff1673ffffffffffffffffffffffffffffffffffffffff16815260200190815260200160002060009054906101000a900460ff161561016e57600080fd5b60008111801561018057506001548111155b61018957600080fd5b6001600260003373ffffffffffffffffffffffffffffffffffffffff1673ffffffffffffffffffffffffffffffffffffffff16815260200190815260200160002060006101000a81548160ff0219169083151502179055506000808281526020019081526020016000206003016000815480929190600101919050555050565b6000602052806000526040600020600091509050806000015490806001018054600181600116156101000203166002900480601f0160208091040260200160405190810160405280929190818152602001828054600181600116156101000203166002900480156102bb5780601f10610290576101008083540402835291602001916102bb565b820191906000526020600020905b81548152906001019060200180831161029e57829003601f168201915b505050505090806002018054600181600116156101000203166002900480601f0160208091040260200160405190810160405280929190818152602001828054600181600116156101000203166002900480156103595780601f1061032e57610100808354040283529160200191610359565b820191906000526020600020905b81548152906001019060200180831161033c57829003601f168201915b5050505050908060030154905084565b600080600090505b6001548110156103a25760008082815260200190815260200160002060030154820191508080600101915050610371565b5090565b60026020528060005260406000206000915054906101000a900460ff1681565b60015481565b6000813590506103db816105d0565b92915050565b6000813590506103f0816105e7565b92915050565b60006020828403121561040857600080fd5b6000610416848285016103cc565b91505092915050565b60006020828403121561043157600080fd5b600061043f848285016103e1565b91505092915050565b61045181610556565b82525050565b600061046282610528565b61046c8185610533565b935061047c81856020860161058c565b610485816105bf565b840191505092915050565b61049981610582565b82525050565b60006020820190506104b46000830184610448565b92915050565b60006020820190506104cf6000830184610490565b92915050565b60006080820190506104ea6000830187610490565b81810360208301526104fc8186610457565b905081810360408301526105108185610457565b905061051f6060830184610490565b95945050505050565b600081519050919050565b600082825260208201905092915050565b600061054f82610562565b9050919050565b60008115159050919050565b600073ffffffffffffffffffffffffffffffffffffffff82169050919050565b6000819050919050565b60005b838110156105aa57808201518184015260208101905061058f565b838111156105b9576000848401525b50505050565b6000601f19601f8301169050919050565b6105d981610544565b81146105e457600080fd5b50565b6105f081610582565b81146105fb57600080fd5b5056fea365627a7a72315820fef841965cd83bd89f32dc04a0c1566db7b81e521d0cd1759559433e7459b58f6c6578706572696d656e74616cf564736f6c63430005100040",
  "source": "pragma solidity >=0.4.22 <0.9.0;\r\npragma experimental ABIEncoderV2;\r\n\r\ncontract Projects {\r\n    struct Project {\r\n        uint id;\r\n        string name;\r\n        string description;\r\n        uint voteCount;\r\n    }\r\n\r\n    constructor() public {\r\n        addProject(\"Vi\\xC5\\xA1e ko\\xC5\\xA1eva za sme\\xC4\\x87e\", \"\");\r\n        addProject(\"Coworking prostori\", \"\");\r\n        addProject(\"Pametna javna rasvjeta\", \"\");\r\n    }\r\n    mapping(uint => Project) public projects;\r\n    uint public projectsCount; //jer ne mozemo iz mappinga dobiti velicinu\r\n\r\n    mapping(address => bool) public voters;\r\n\r\n    function addProject (string memory _name, string memory _description) private {\r\n        projectsCount++;\r\n        projects[projectsCount] = Project(projectsCount, _name, _description, 0);\r\n    }\r\n\r\n    function getVotedCount() public view returns (uint count) {\r\n        for (uint i = 0; i < projectsCount; i++) {\r\n            count += projects[i].voteCount;\r\n        }\r\n    }\r\n\r\n    function vote(uint _projectId) public {\r\n        //checking that this address hasn't voted before\r\n        require(!voters[msg.sender]);\r\n        //make sure that projectid is valid\r\n        require(_projectId > 0 && _projectId <= projectsCount);\r\n        //setting that a voter has voted\r\n        voters[msg.sender] = true;\r\n        //incrementing votecount for project\r\n        projects[_projectId].voteCount++;\r\n    }\r\n\r\n}",
  "sourcePath": "C:\\Users\\nikki\\Documents\\GitHub\\choose-wisely\\contracts\\Projects.sol",
  "compiler": {
    "name": "solc",
    "version": "0.5.16+commit.9c3226ce.Emscripten.clang"
  },
  "schemaVersion": "3.4.2",
  "updatedAt": "2021-08-16T19:38:53.438Z",
  "networkType": "ethereum",
  "devdoc": {
    "methods": {}
  },
  "userdoc": {
    "methods": {}
  }
}