{
  "contractName": "Projects",
  "abi": [
    {
      "inputs": [],
      "payable": false,
      "stateMutability": "nonpayable",
      "type": "constructor"
    },
    {
      "constant": true,
      "inputs": [],
      "name": "peopleCount",
      "outputs": [
        {
          "internalType": "uint256",
          "name": "",
          "type": "uint256"
        }
      ],
      "payable": false,
      "stateMutability": "view",
      "type": "function"
    },
    {
      "constant": true,
      "inputs": [
        {
          "internalType": "uint256",
          "name": "",
          "type": "uint256"
        }
      ],
      "name": "projects",
      "outputs": [
        {
          "internalType": "uint256",
          "name": "id",
          "type": "uint256"
        },
        {
          "internalType": "string",
          "name": "name",
          "type": "string"
        },
        {
          "internalType": "string",
          "name": "description",
          "type": "string"
        },
        {
          "internalType": "uint256",
          "name": "voteCount",
          "type": "uint256"
        }
      ],
      "payable": false,
      "stateMutability": "view",
      "type": "function"
    },
    {
      "constant": true,
      "inputs": [],
      "name": "projectsCount",
      "outputs": [
        {
          "internalType": "uint256",
          "name": "",
          "type": "uint256"
        }
      ],
      "payable": false,
      "stateMutability": "view",
      "type": "function"
    },
    {
      "constant": true,
      "inputs": [],
      "name": "getVotedCount",
      "outputs": [
        {
          "internalType": "uint256",
          "name": "count",
          "type": "uint256"
        }
      ],
      "payable": false,
      "stateMutability": "view",
      "type": "function"
    },
    {
      "constant": true,
      "inputs": [],
      "name": "getMostVoted",
      "outputs": [
        {
          "components": [
            {
              "internalType": "uint256",
              "name": "id",
              "type": "uint256"
            },
            {
              "internalType": "string",
              "name": "name",
              "type": "string"
            },
            {
              "internalType": "string",
              "name": "description",
              "type": "string"
            },
            {
              "internalType": "uint256",
              "name": "voteCount",
              "type": "uint256"
            }
          ],
          "internalType": "struct Projects.Project",
          "name": "",
          "type": "tuple"
        }
      ],
      "payable": false,
      "stateMutability": "view",
      "type": "function"
    }
  ],
  "bytecode": "0x608060405234801561001057600080fd5b506100656040518060400160405280601781526020017f5669c5a065206b6fc5a0657661207a6120736d65c487650000000000000000008152506040518060200160405280600081525061020e60201b60201c565b6100b96040518060400160405280600c81526020017f4a61766e69207a61686f646900000000000000000000000000000000000000008152506040518060200160405280600081525061020e60201b60201c565b61010d6040518060400160405280601281526020017f436f776f726b696e672070726f73746f726900000000000000000000000000008152506040518060200160405280600081525061020e60201b60201c565b6101616040518060400160405280601681526020017f50616d65746e61206a61766e6120726173766a657461000000000000000000008152506040518060200160405280600081525061020e60201b60201c565b6101b56040518060400160405280600e81526020017f5061726b6f7669207a61207073650000000000000000000000000000000000008152506040518060200160405280600081525061020e60201b60201c565b6102096040518060400160405280600e81526020017f5669c5a065207a656c656e696c610000000000000000000000000000000000008152506040518060200160405280600081525061020e60201b60201c565b610352565b600160008154809291906001019190505550604051806080016040528060015481526020018381526020018281526020016000815250600080600154815260200190815260200160002060008201518160000155602082015181600101908051906020019061027e9291906102ad565b50604082015181600201908051906020019061029b9291906102ad565b50606082015181600301559050505050565b828054600181600116156101000203166002900490600052602060002090601f016020900481019282601f106102ee57805160ff191683800117855561031c565b8280016001018555821561031c579182015b8281111561031b578251825591602001919060010190610300565b5b509050610329919061032d565b5090565b61034f91905b8082111561034b576000816000905550600101610333565b5090565b90565b610752806103616000396000f3fe608060405234801561001057600080fd5b50600436106100575760003560e01c8063107046bd1461005c578063267c68e01461008f57806332d80bab146100ad578063648d2af5146100cb578063c73b302e146100e9575b600080fd5b610076600480360361007191908101906104ca565b610107565b604051610086949392919061062a565b60405180910390f35b610097610267565b6040516100a4919061060f565b60405180910390f35b6100b561026d565b6040516100c291906105ed565b60405180910390f35b6100d361044a565b6040516100e0919061060f565b60405180910390f35b6100f1610487565b6040516100fe919061060f565b60405180910390f35b6000602052806000526040600020600091509050806000015490806001018054600181600116156101000203166002900480601f0160208091040260200160405190810160405280929190818152602001828054600181600116156101000203166002900480156101b95780601f1061018e576101008083540402835291602001916101b9565b820191906000526020600020905b81548152906001019060200180831161019c57829003601f168201915b505050505090806002018054600181600116156101000203166002900480601f0160208091040260200160405190810160405280929190818152602001828054600181600116156101000203166002900480156102575780601f1061022c57610100808354040283529160200191610257565b820191906000526020600020905b81548152906001019060200180831161023a57829003601f168201915b5050505050908060030154905084565b60035481565b61027561048d565b60008090506000600190505b6001548110156102ce57600080838152602001908152602001600020600301546000808381526020019081526020016000206003015411156102c1578091505b8080600101915050610281565b5060008082815260200190815260200160002060405180608001604052908160008201548152602001600182018054600181600116156101000203166002900480601f01602080910402602001604051908101604052809291908181526020018280546001816001161561010002031660029004801561038f5780601f106103645761010080835404028352916020019161038f565b820191906000526020600020905b81548152906001019060200180831161037257829003601f168201915b50505050508152602001600282018054600181600116156101000203166002900480601f0160208091040260200160405190810160405280929190818152602001828054600181600116156101000203166002900480156104315780601f1061040657610100808354040283529160200191610431565b820191906000526020600020905b81548152906001019060200180831161041457829003601f168201915b5050505050815260200160038201548152505091505090565b600080600090505b6001548110156104835760008082815260200190815260200160002060030154820191508080600101915050610452565b5090565b60015481565b6040518060800160405280600081526020016060815260200160608152602001600081525090565b6000813590506104c4816106f8565b92915050565b6000602082840312156104dc57600080fd5b60006104ea848285016104b5565b91505092915050565b60006104fe8261067d565b6105088185610688565b93506105188185602086016106b4565b610521816106e7565b840191505092915050565b60006105378261067d565b6105418185610699565b93506105518185602086016106b4565b61055a816106e7565b840191505092915050565b600060808301600083015161057d60008601826105cf565b506020830151848203602086015261059582826104f3565b915050604083015184820360408601526105af82826104f3565b91505060608301516105c460608601826105cf565b508091505092915050565b6105d8816106aa565b82525050565b6105e7816106aa565b82525050565b600060208201905081810360008301526106078184610565565b905092915050565b600060208201905061062460008301846105de565b92915050565b600060808201905061063f60008301876105de565b8181036020830152610651818661052c565b90508181036040830152610665818561052c565b905061067460608301846105de565b95945050505050565b600081519050919050565b600082825260208201905092915050565b600082825260208201905092915050565b6000819050919050565b60005b838110156106d25780820151818401526020810190506106b7565b838111156106e1576000848401525b50505050565b6000601f19601f8301169050919050565b610701816106aa565b811461070c57600080fd5b5056fea365627a7a72315820604efb7d96b0f763a8d16c14054ea55d21d53fed506881e140378a9b2ff748666c6578706572696d656e74616cf564736f6c63430005100040",
  "source": "pragma solidity >=0.4.22 <0.9.0;\r\npragma experimental ABIEncoderV2;\r\n\r\ncontract Projects {\r\n    struct Project {\r\n        uint id;\r\n        string name;\r\n        string description;\r\n        uint voteCount;\r\n    }\r\n\r\n    constructor() public {\r\n        addProject(\"Vi\\xC5\\xA0e ko\\xC5\\xA0eva za sme\\xC4\\x87e\", \"\");\r\n        addProject(\"Javni zahodi\", \"\");\r\n        addProject(\"Coworking prostori\", \"\");\r\n        addProject(\"Pametna javna rasvjeta\", \"\");\r\n        addProject(\"Parkovi za pse\", \"\");\r\n        addProject(\"Vi\\xC5\\xA0e zelenila\", \"\");\r\n    }\r\n    mapping(uint => Project) public projects;\r\n    uint public projectsCount; //jer ne mozemo iz mappinga dobiti velicinu\r\n\r\n    function addProject (string memory _name, string memory _description) private {\r\n        projectsCount++;\r\n        projects[projectsCount] = Project(projectsCount, _name, _description, 0);\r\n    }\r\n    struct Person {\r\n        uint id;\r\n        bool registered;\r\n        bool voted;\r\n    }\r\n\r\n    //Project[] public projects;\r\n\r\n    mapping(address => Person) people;\r\n    uint256 public peopleCount;\r\n\r\n    function getVotedCount() public view returns (uint256 count) {\r\n        for (uint256 i = 0; i < projectsCount; i++) {\r\n            count += projects[i].voteCount;\r\n        }\r\n    }\r\n\r\n    function getMostVoted() public view returns (Project memory) {\r\n        uint256 index = 0;\r\n        for (uint256 i = 1; i < projectsCount; i++) {\r\n            if (projects[i].voteCount > projects[index].voteCount) {\r\n                index = i;\r\n            }\r\n        }\r\n        return projects[index];\r\n    }\r\n\r\n}",
  "sourcePath": "C:\\Users\\nikki\\Documents\\GitHub\\choose-wisely\\contracts\\Projects.sol",
  "compiler": {
    "name": "solc",
    "version": "0.5.16+commit.9c3226ce.Emscripten.clang"
  },
  "schemaVersion": "3.4.2",
  "updatedAt": "2021-08-07T17:23:17.547Z",
  "networkType": "ethereum",
  "devdoc": {
    "methods": {}
  },
  "userdoc": {
    "methods": {}
  }
}