{
  "contractName": "Projects",
  "abi": [
    {
      "inputs": [],
      "payable": false,
      "stateMutability": "nonpayable",
      "type": "constructor"
    },
    {
      "constant": true,
      "inputs": [
        {
          "internalType": "uint256",
          "name": "",
          "type": "uint256"
        }
      ],
      "name": "projects",
      "outputs": [
        {
          "internalType": "uint256",
          "name": "id",
          "type": "uint256"
        },
        {
          "internalType": "string",
          "name": "name",
          "type": "string"
        },
        {
          "internalType": "string",
          "name": "description",
          "type": "string"
        },
        {
          "internalType": "uint256",
          "name": "voteCount",
          "type": "uint256"
        }
      ],
      "payable": false,
      "stateMutability": "view",
      "type": "function"
    },
    {
      "constant": true,
      "inputs": [],
      "name": "projectsCount",
      "outputs": [
        {
          "internalType": "uint256",
          "name": "",
          "type": "uint256"
        }
      ],
      "payable": false,
      "stateMutability": "view",
      "type": "function"
    },
    {
      "constant": true,
      "inputs": [
        {
          "internalType": "address",
          "name": "",
          "type": "address"
        }
      ],
      "name": "voters",
      "outputs": [
        {
          "internalType": "bool",
          "name": "",
          "type": "bool"
        }
      ],
      "payable": false,
      "stateMutability": "view",
      "type": "function"
    },
    {
      "constant": true,
      "inputs": [],
      "name": "getVotedCount",
      "outputs": [
        {
          "internalType": "uint256",
          "name": "count",
          "type": "uint256"
        }
      ],
      "payable": false,
      "stateMutability": "view",
      "type": "function"
    },
    {
      "constant": false,
      "inputs": [
        {
          "internalType": "uint256",
          "name": "_projectId",
          "type": "uint256"
        }
      ],
      "name": "vote",
      "outputs": [],
      "payable": false,
      "stateMutability": "nonpayable",
      "type": "function"
    }
  ],
  "bytecode": "0x608060405234801561001057600080fd5b5061006f6040518060400160405280601781526020017f5669c5a165206b6fc5a1657661207a6120736d65c4876500000000000000000081525060405180610120016040528060e581526020016108c960e5913961013260201b60201c565b6100cd6040518060400160405280601281526020017f436f776f726b696e672070726f73746f7269000000000000000000000000000081525060405180610120016040528060fb8152602001610ad660fb913961013260201b60201c565b61012d6040518060400160405280601681526020017f50616d65746e61206a61766e6120726173766a6574610000000000000000000081525060405180610160016040528061012881526020016109ae610128913961013260201b60201c565b610276565b60016000815480929190600101919050555060405180608001604052806001548152602001838152602001828152602001600081525060008060015481526020019081526020016000206000820151816000015560208201518160010190805190602001906101a29291906101d1565b5060408201518160020190805190602001906101bf9291906101d1565b50606082015181600301559050505050565b828054600181600116156101000203166002900490600052602060002090601f016020900481019282601f1061021257805160ff1916838001178555610240565b82800160010185558215610240579182015b8281111561023f578251825591602001919060010190610224565b5b50905061024d9190610251565b5090565b61027391905b8082111561026f576000816000905550600101610257565b5090565b90565b610644806102856000396000f3fe608060405234801561001057600080fd5b50600436106100575760003560e01c80630121b93f1461005c578063107046bd14610078578063648d2af5146100ab578063a3ec138d146100c9578063c73b302e146100f9575b600080fd5b61007660048036036100719190810190610422565b610117565b005b610092600480360361008d9190810190610422565b610209565b6040516100a294939291906104d8565b60405180910390f35b6100b3610369565b6040516100c091906104bd565b60405180910390f35b6100e360048036036100de91908101906103f9565b6103a9565b6040516100f091906104a2565b60405180910390f35b6101016103c9565b60405161010e91906104bd565b60405180910390f35b600260003373ffffffffffffffffffffffffffffffffffffffff1673ffffffffffffffffffffffffffffffffffffffff16815260200190815260200160002060009054906101000a900460ff161561016e57600080fd5b60008111801561018057506001548111155b61018957600080fd5b6001600260003373ffffffffffffffffffffffffffffffffffffffff1673ffffffffffffffffffffffffffffffffffffffff16815260200190815260200160002060006101000a81548160ff0219169083151502179055506000808281526020019081526020016000206003016000815480929190600101919050555050565b6000602052806000526040600020600091509050806000015490806001018054600181600116156101000203166002900480601f0160208091040260200160405190810160405280929190818152602001828054600181600116156101000203166002900480156102bb5780601f10610290576101008083540402835291602001916102bb565b820191906000526020600020905b81548152906001019060200180831161029e57829003601f168201915b505050505090806002018054600181600116156101000203166002900480601f0160208091040260200160405190810160405280929190818152602001828054600181600116156101000203166002900480156103595780601f1061032e57610100808354040283529160200191610359565b820191906000526020600020905b81548152906001019060200180831161033c57829003601f168201915b5050505050908060030154905084565b600080600090505b6001548110156103a25760008082815260200190815260200160002060030154820191508080600101915050610371565b5080905090565b60026020528060005260406000206000915054906101000a900460ff1681565b60015481565b6000813590506103de816105d3565b92915050565b6000813590506103f3816105ea565b92915050565b60006020828403121561040b57600080fd5b6000610419848285016103cf565b91505092915050565b60006020828403121561043457600080fd5b6000610442848285016103e4565b91505092915050565b61045481610559565b82525050565b60006104658261052b565b61046f8185610536565b935061047f81856020860161058f565b610488816105c2565b840191505092915050565b61049c81610585565b82525050565b60006020820190506104b7600083018461044b565b92915050565b60006020820190506104d26000830184610493565b92915050565b60006080820190506104ed6000830187610493565b81810360208301526104ff818661045a565b90508181036040830152610513818561045a565b90506105226060830184610493565b95945050505050565b600081519050919050565b600082825260208201905092915050565b600061055282610565565b9050919050565b60008115159050919050565b600073ffffffffffffffffffffffffffffffffffffffff82169050919050565b6000819050919050565b60005b838110156105ad578082015181840152602081019050610592565b838111156105bc576000848401525b50505050565b6000601f19601f8301169050919050565b6105dc81610547565b81146105e757600080fd5b50565b6105f381610585565b81146105fe57600080fd5b5056fea365627a7a72315820d371447f2e2b20738c30b4070117d6f70550816b84c5af99210359a255d8f5576c6578706572696d656e74616cf564736f6c634300051000405376616b6f6d20677261647520706f747265626e69207375206b6fc5a1657669207a6120736d65c487652e205472656e75746e6f206968206e696a6520646f766f6c6a6e6f2069207a626f6720746f676120677261c491616e6920626163616a75206f74706164207520707269726f647520696c69206761206e6f73652073766f6a696d206b75c487616d61206b616b6f206269206761207a6272696e756c692e20c5bd656c696d6f20c48d69737420692075726564616e20677261642c207a6172206e653f20556b6f6c696b6f20736520736c61c5be6574652c20676c6173616a74652e53766a65746c6f736e6f206f6e65c48d69c5a1c487656e6a65206f6b6f6c69c5a161206e6973752072696a65c48d69206b6f6a6520c48d6573746f20c48d756a6574652c206e6f206f6e652073752073747661726e6f73742e204e656761746976616e2075746a6563616a206e612062696c6a6e69206920c5be69766f74696e6a736b69207376696a65742c206f6d6574616e6a6520737564696f6e696b6120752070726f6d6574752c20656e6572676574736b61206e6575c48d696e6b6f7669746f73742073616d6f207375206f64207061722070726f626c656d61206b6f6a65206f6e6f20646f6e6f73692e2050616d65746e6120726173766a65746120726a65c5a1617661207374766172212049207a626f6720746f67612e2e2e20676c6173616a74652e204b6f64206b75c48765206e656d617465206164656b766174616e2070726f73746f72207a61207261643f2054726562612076616d206d6972613f20c5bd656c6974652075646f626e696a752073746f6c6963753f20426f6c6a65206f73766a65746c6a656e6a653f20496e7465726e65743f205376653f204e6520c5be656c697465207a616b757069746920706f736c6f766e692070726f73746f722c2061206970616b20c5be656c69746520696d617469206d6a6573746f2067646a65206d6fc5be657465207261646974693f20436f776f726b696e672070726f73746f726920737520726a65c5a1656e6a652120476c6173616a74652e20",
  "source": "pragma solidity >=0.4.22 <0.9.0;\r\npragma experimental ABIEncoderV2;\r\n\r\ncontract Projects {\r\n    struct Project {\r\n        uint256 id;\r\n        string name;\r\n        string description;\r\n        uint256 voteCount;\r\n    }\r\n\r\n    constructor() public {\r\n        //utf-8 encoded\r\n        addProject(\"\\x56\\x69\\xC5\\xA1\\x65\\x20\\x6B\\x6F\\xC5\\xA1\\x65\\x76\\x61\\x20\\x7A\\x61\\x20\\x73\\x6D\\x65\\xC4\\x87\\x65\", \"\\x53\\x76\\x61\\x6B\\x6F\\x6D\\x20\\x67\\x72\\x61\\x64\\x75\\x20\\x70\\x6F\\x74\\x72\\x65\\x62\\x6E\\x69\\x20\\x73\\x75\\x20\\x6B\\x6F\\xC5\\xA1\\x65\\x76\\x69\\x20\\x7A\\x61\\x20\\x73\\x6D\\x65\\xC4\\x87\\x65\\x2E\\x20\\x54\\x72\\x65\\x6E\\x75\\x74\\x6E\\x6F\\x20\\x69\\x68\\x20\\x6E\\x69\\x6A\\x65\\x20\\x64\\x6F\\x76\\x6F\\x6C\\x6A\\x6E\\x6F\\x20\\x69\\x20\\x7A\\x62\\x6F\\x67\\x20\\x74\\x6F\\x67\\x61\\x20\\x67\\x72\\x61\\xC4\\x91\\x61\\x6E\\x69\\x20\\x62\\x61\\x63\\x61\\x6A\\x75\\x20\\x6F\\x74\\x70\\x61\\x64\\x20\\x75\\x20\\x70\\x72\\x69\\x72\\x6F\\x64\\x75\\x20\\x69\\x6C\\x69\\x20\\x67\\x61\\x20\\x6E\\x6F\\x73\\x65\\x20\\x73\\x76\\x6F\\x6A\\x69\\x6D\\x20\\x6B\\x75\\xC4\\x87\\x61\\x6D\\x61\\x20\\x6B\\x61\\x6B\\x6F\\x20\\x62\\x69\\x20\\x67\\x61\\x20\\x7A\\x62\\x72\\x69\\x6E\\x75\\x6C\\x69\\x2E\\x20\\xC5\\xBD\\x65\\x6C\\x69\\x6D\\x6F\\x20\\xC4\\x8D\\x69\\x73\\x74\\x20\\x69\\x20\\x75\\x72\\x65\\x64\\x61\\x6E\\x20\\x67\\x72\\x61\\x64\\x2C\\x20\\x7A\\x61\\x72\\x20\\x6E\\x65\\x3F\\x20\\x55\\x6B\\x6F\\x6C\\x69\\x6B\\x6F\\x20\\x73\\x65\\x20\\x73\\x6C\\x61\\xC5\\xBE\\x65\\x74\\x65\\x2C\\x20\\x67\\x6C\\x61\\x73\\x61\\x6A\\x74\\x65\\x2E\");\r\n        addProject(\"\\x43\\x6F\\x77\\x6F\\x72\\x6B\\x69\\x6E\\x67\\x20\\x70\\x72\\x6F\\x73\\x74\\x6F\\x72\\x69\", \"\\x20\\x4B\\x6F\\x64\\x20\\x6B\\x75\\xC4\\x87\\x65\\x20\\x6E\\x65\\x6D\\x61\\x74\\x65\\x20\\x61\\x64\\x65\\x6B\\x76\\x61\\x74\\x61\\x6E\\x20\\x70\\x72\\x6F\\x73\\x74\\x6F\\x72\\x20\\x7A\\x61\\x20\\x72\\x61\\x64\\x3F\\x20\\x54\\x72\\x65\\x62\\x61\\x20\\x76\\x61\\x6D\\x20\\x6D\\x69\\x72\\x61\\x3F\\x20\\xC5\\xBD\\x65\\x6C\\x69\\x74\\x65\\x20\\x75\\x64\\x6F\\x62\\x6E\\x69\\x6A\\x75\\x20\\x73\\x74\\x6F\\x6C\\x69\\x63\\x75\\x3F\\x20\\x42\\x6F\\x6C\\x6A\\x65\\x20\\x6F\\x73\\x76\\x6A\\x65\\x74\\x6C\\x6A\\x65\\x6E\\x6A\\x65\\x3F\\x20\\x49\\x6E\\x74\\x65\\x72\\x6E\\x65\\x74\\x3F\\x20\\x53\\x76\\x65\\x3F\\x20\\x4E\\x65\\x20\\xC5\\xBE\\x65\\x6C\\x69\\x74\\x65\\x20\\x7A\\x61\\x6B\\x75\\x70\\x69\\x74\\x69\\x20\\x70\\x6F\\x73\\x6C\\x6F\\x76\\x6E\\x69\\x20\\x70\\x72\\x6F\\x73\\x74\\x6F\\x72\\x2C\\x20\\x61\\x20\\x69\\x70\\x61\\x6B\\x20\\xC5\\xBE\\x65\\x6C\\x69\\x74\\x65\\x20\\x69\\x6D\\x61\\x74\\x69\\x20\\x6D\\x6A\\x65\\x73\\x74\\x6F\\x20\\x67\\x64\\x6A\\x65\\x20\\x6D\\x6F\\xC5\\xBE\\x65\\x74\\x65\\x20\\x72\\x61\\x64\\x69\\x74\\x69\\x3F\\x20\\x43\\x6F\\x77\\x6F\\x72\\x6B\\x69\\x6E\\x67\\x20\\x70\\x72\\x6F\\x73\\x74\\x6F\\x72\\x69\\x20\\x73\\x75\\x20\\x72\\x6A\\x65\\xC5\\xA1\\x65\\x6E\\x6A\\x65\\x21\\x20\\x47\\x6C\\x61\\x73\\x61\\x6A\\x74\\x65\\x2E\\x20\");\r\n        addProject(\"\\x50\\x61\\x6D\\x65\\x74\\x6E\\x61\\x20\\x6A\\x61\\x76\\x6E\\x61\\x20\\x72\\x61\\x73\\x76\\x6A\\x65\\x74\\x61\", \"\\x53\\x76\\x6A\\x65\\x74\\x6C\\x6F\\x73\\x6E\\x6F\\x20\\x6F\\x6E\\x65\\xC4\\x8D\\x69\\xC5\\xA1\\xC4\\x87\\x65\\x6E\\x6A\\x65\\x20\\x6F\\x6B\\x6F\\x6C\\x69\\xC5\\xA1\\x61\\x20\\x6E\\x69\\x73\\x75\\x20\\x72\\x69\\x6A\\x65\\xC4\\x8D\\x69\\x20\\x6B\\x6F\\x6A\\x65\\x20\\xC4\\x8D\\x65\\x73\\x74\\x6F\\x20\\xC4\\x8D\\x75\\x6A\\x65\\x74\\x65\\x2C\\x20\\x6E\\x6F\\x20\\x6F\\x6E\\x65\\x20\\x73\\x75\\x20\\x73\\x74\\x76\\x61\\x72\\x6E\\x6F\\x73\\x74\\x2E\\x20\\x4E\\x65\\x67\\x61\\x74\\x69\\x76\\x61\\x6E\\x20\\x75\\x74\\x6A\\x65\\x63\\x61\\x6A\\x20\\x6E\\x61\\x20\\x62\\x69\\x6C\\x6A\\x6E\\x69\\x20\\x69\\x20\\xC5\\xBE\\x69\\x76\\x6F\\x74\\x69\\x6E\\x6A\\x73\\x6B\\x69\\x20\\x73\\x76\\x69\\x6A\\x65\\x74\\x2C\\x20\\x6F\\x6D\\x65\\x74\\x61\\x6E\\x6A\\x65\\x20\\x73\\x75\\x64\\x69\\x6F\\x6E\\x69\\x6B\\x61\\x20\\x75\\x20\\x70\\x72\\x6F\\x6D\\x65\\x74\\x75\\x2C\\x20\\x65\\x6E\\x65\\x72\\x67\\x65\\x74\\x73\\x6B\\x61\\x20\\x6E\\x65\\x75\\xC4\\x8D\\x69\\x6E\\x6B\\x6F\\x76\\x69\\x74\\x6F\\x73\\x74\\x20\\x73\\x61\\x6D\\x6F\\x20\\x73\\x75\\x20\\x6F\\x64\\x20\\x70\\x61\\x72\\x20\\x70\\x72\\x6F\\x62\\x6C\\x65\\x6D\\x61\\x20\\x6B\\x6F\\x6A\\x65\\x20\\x6F\\x6E\\x6F\\x20\\x64\\x6F\\x6E\\x6F\\x73\\x69\\x2E\\x20\\x50\\x61\\x6D\\x65\\x74\\x6E\\x61\\x20\\x72\\x61\\x73\\x76\\x6A\\x65\\x74\\x61\\x20\\x72\\x6A\\x65\\xC5\\xA1\\x61\\x76\\x61\\x20\\x73\\x74\\x76\\x61\\x72\\x21\\x20\\x49\\x20\\x7A\\x62\\x6F\\x67\\x20\\x74\\x6F\\x67\\x61\\x2E\\x2E\\x2E\\x20\\x67\\x6C\\x61\\x73\\x61\\x6A\\x74\\x65\\x2E\");\r\n    }\r\n\r\n    mapping(uint256 => Project) public projects;\r\n    uint256 public projectsCount;\r\n\r\n    mapping(address => bool) public voters;\r\n\r\n    function addProject(string memory _name, string memory _description)\r\n        private\r\n    {\r\n        projectsCount++;\r\n        projects[projectsCount] = Project(\r\n            projectsCount,\r\n            _name,\r\n            _description,\r\n            0\r\n        );\r\n    }\r\n\r\n    function getVotedCount() public view returns (uint256 count) {\r\n        for (uint256 i = 0; i < projectsCount; i++) {\r\n            count += projects[i].voteCount;\r\n        }\r\n        return count;\r\n    }\r\n\r\n    function vote(uint256 _projectId) public {\r\n        //checking that this address hasn't voted before\r\n        require(!voters[msg.sender]);\r\n        //make sure that projectid is valid\r\n        require(_projectId > 0 && _projectId <= projectsCount);\r\n        //setting that a voter has voted\r\n        voters[msg.sender] = true;\r\n        //incrementing votecount for project\r\n        projects[_projectId].voteCount++;\r\n    }\r\n}\r\n",
  "sourcePath": "C:\\Users\\nikki\\Documents\\GitHub\\choose-wisely\\contracts\\Projects.sol",
  "compiler": {
    "name": "solc",
    "version": "0.5.16+commit.9c3226ce.Emscripten.clang"
  },
  "schemaVersion": "3.4.2",
  "updatedAt": "2021-08-22T19:08:46.403Z",
  "networkType": "ethereum",
  "devdoc": {
    "methods": {}
  },
  "userdoc": {
    "methods": {}
  }
}