{
  "contractName": "Projects",
  "abi": [
    {
      "inputs": [],
      "payable": false,
      "stateMutability": "nonpayable",
      "type": "constructor"
    },
    {
      "constant": true,
      "inputs": [
        {
          "internalType": "uint256",
          "name": "",
          "type": "uint256"
        }
      ],
      "name": "projects",
      "outputs": [
        {
          "internalType": "uint256",
          "name": "id",
          "type": "uint256"
        },
        {
          "internalType": "string",
          "name": "name",
          "type": "string"
        },
        {
          "internalType": "string",
          "name": "description",
          "type": "string"
        },
        {
          "internalType": "uint256",
          "name": "voteCount",
          "type": "uint256"
        }
      ],
      "payable": false,
      "stateMutability": "view",
      "type": "function"
    },
    {
      "constant": true,
      "inputs": [],
      "name": "projectsCount",
      "outputs": [
        {
          "internalType": "uint256",
          "name": "",
          "type": "uint256"
        }
      ],
      "payable": false,
      "stateMutability": "view",
      "type": "function"
    },
    {
      "constant": true,
      "inputs": [],
      "name": "getVotedCount",
      "outputs": [
        {
          "internalType": "uint256",
          "name": "count",
          "type": "uint256"
        }
      ],
      "payable": false,
      "stateMutability": "view",
      "type": "function"
    }
  ],
  "bytecode": "0x608060405234801561001057600080fd5b506100656040518060400160405280601781526020017f5669c5a165206b6fc5a1657661207a6120736d65c487650000000000000000008152506040518060200160405280600081525061011260201b60201c565b6100b96040518060400160405280601281526020017f436f776f726b696e672070726f73746f726900000000000000000000000000008152506040518060200160405280600081525061011260201b60201c565b61010d6040518060400160405280601681526020017f50616d65746e61206a61766e6120726173766a657461000000000000000000008152506040518060200160405280600081525061011260201b60201c565b610256565b60016000815480929190600101919050555060405180608001604052806001548152602001838152602001828152602001600081525060008060015481526020019081526020016000206000820151816000015560208201518160010190805190602001906101829291906101b1565b50604082015181600201908051906020019061019f9291906101b1565b50606082015181600301559050505050565b828054600181600116156101000203166002900490600052602060002090601f016020900481019282601f106101f257805160ff1916838001178555610220565b82800160010185558215610220579182015b8281111561021f578251825591602001919060010190610204565b5b50905061022d9190610231565b5090565b61025391905b8082111561024f576000816000905550600101610237565b5090565b90565b610410806102656000396000f3fe608060405234801561001057600080fd5b50600436106100415760003560e01c8063107046bd14610046578063648d2af514610079578063c73b302e14610097575b600080fd5b610060600480360361005b919081019061026d565b6100b5565b60405161007094939291906102f9565b60405180910390f35b610081610215565b60405161008e91906102de565b60405180910390f35b61009f610252565b6040516100ac91906102de565b60405180910390f35b6000602052806000526040600020600091509050806000015490806001018054600181600116156101000203166002900480601f0160208091040260200160405190810160405280929190818152602001828054600181600116156101000203166002900480156101675780601f1061013c57610100808354040283529160200191610167565b820191906000526020600020905b81548152906001019060200180831161014a57829003601f168201915b505050505090806002018054600181600116156101000203166002900480601f0160208091040260200160405190810160405280929190818152602001828054600181600116156101000203166002900480156102055780601f106101da57610100808354040283529160200191610205565b820191906000526020600020905b8154815290600101906020018083116101e857829003601f168201915b5050505050908060030154905084565b600080600090505b60015481101561024e576000808281526020019081526020016000206003015482019150808060010191505061021d565b5090565b60015481565b600081359050610267816103b6565b92915050565b60006020828403121561027f57600080fd5b600061028d84828501610258565b91505092915050565b60006102a18261034c565b6102ab8185610357565b93506102bb818560208601610372565b6102c4816103a5565b840191505092915050565b6102d881610368565b82525050565b60006020820190506102f360008301846102cf565b92915050565b600060808201905061030e60008301876102cf565b81810360208301526103208186610296565b905081810360408301526103348185610296565b905061034360608301846102cf565b95945050505050565b600081519050919050565b600082825260208201905092915050565b6000819050919050565b60005b83811015610390578082015181840152602081019050610375565b8381111561039f576000848401525b50505050565b6000601f19601f8301169050919050565b6103bf81610368565b81146103ca57600080fd5b5056fea365627a7a72315820f836724ba12091278059d833581279a120dfe5ffa3d0858655974ffe0f84acac6c6578706572696d656e74616cf564736f6c63430005100040",
  "source": "pragma solidity >=0.4.22 <0.9.0;\r\npragma experimental ABIEncoderV2;\r\n\r\ncontract Projects {\r\n    struct Project {\r\n        uint id;\r\n        string name;\r\n        string description;\r\n        uint voteCount;\r\n    }\r\n\r\n    constructor() public {\r\n        addProject(\"Vi\\xC5\\xA1e ko\\xC5\\xA1eva za sme\\xC4\\x87e\", \"\");\r\n        addProject(\"Coworking prostori\", \"\");\r\n        addProject(\"Pametna javna rasvjeta\", \"\");\r\n    }\r\n    mapping(uint => Project) public projects;\r\n    uint public projectsCount; //jer ne mozemo iz mappinga dobiti velicinu\r\n\r\n    function addProject (string memory _name, string memory _description) private {\r\n        projectsCount++;\r\n        projects[projectsCount] = Project(projectsCount, _name, _description, 0);\r\n    }\r\n\r\n    function getVotedCount() public view returns (uint count) {\r\n        for (uint i = 0; i < projectsCount; i++) {\r\n            count += projects[i].voteCount;\r\n        }\r\n    }\r\n    \r\n    address[] private voters;\r\n}",
  "sourcePath": "C:\\Users\\nikki\\Documents\\GitHub\\choose-wisely\\contracts\\Projects.sol",
  "compiler": {
    "name": "solc",
    "version": "0.5.16+commit.9c3226ce.Emscripten.clang"
  },
  "schemaVersion": "3.4.2",
  "updatedAt": "2021-08-07T20:20:46.774Z",
  "networkType": "ethereum",
  "devdoc": {
    "methods": {}
  },
  "userdoc": {
    "methods": {}
  }
}